:100000000C9454000C947C000C947C000C947C00A8
:100010000C947C000C947C000C947C000C947C0070
:100020000C947C000C947C000C947C000C947C0060
:100030000C947C000C947C000C947C000C947C0050
:100040000C94B3010C947C000C94A0030C94DC037E
:100050000C947C000C947C000C947C000C947C0030
:100060000C947C000C947C00010204081020408059
:1000700001020408102001020408102004040404F2
:100080000404040402020202020203030303030342
:1000900000000000250028002B00000000002400C4
:1000A00027002A00B700970411241FBECFEFD8E025
:1000B000DEBFCDBF11E0A0E0B1E0E0E7F0E102C0BB
:1000C00005900D92AE32B107D9F711E0AEE2B1E082
:1000D00001C01D92A83EB107E1F710E0C8EAD0E0E8
:1000E00004C02297FE010E943208C43AD107C9F722
:1000F0000E94AA000C94D9050C94000040E855E237
:1001000060E070E081E491E00E9417046EE070E02E
:1001100080E391E00C942E0180E391E00E940C01B9
:1001200090932F0180932E0161E071E081E491E0D2
:100130000E941F0560912E0170912F014AE050E04E
:1001400081E491E00E94D00564EF71E080E090E0EE
:100150000C9427020E944D020E947E00C3EDD3E062
:100160000E948C002097E1F30E94D303F9CF80E333
:1001700091E00C948301FC0185E191E091838083FF
:1001800015821482178216820895FC0184810C94D2
:100190009201AF92BF92CF92DF92EF92FF920F93B4
:1001A0001F93FC01868197818330910551F4882744
:1001B00077FD8095982F1F921F922CE02F9324EEAD
:1001C0000BC00597E9F4882777FD8095982F1F923B
:1001D0001F9223E12F9328E82F93A12CB12C6501C6
:1001E000EE24EA9413E0F12E00E010E020E030E08D
:1001F000A9010E9488020F900F900F900F9002C0EB
:1002000060E070E0CB011F910F91FF90EF90DF90C5
:10021000CF90BF90AF900895CF93DF93EC010E94F1
:10022000C500BC01CE01DF91CF910C94C900CF93E2
:10023000DF93EC017F836E836530710519F481E0F3
:100240000E948F018E819F81039729F480E0DF91C6
:10025000CF910C948F01DF91CF910895EF92FF928F
:100260001F93CF93DF931F92CDB7DEB77C01162F7C
:1002700060E0812F79830E94CF02F7011483798196
:10028000758361E070E0C7010E94510165E070E094
:10029000C7010F90DF91CF911F91FF90EF900C94C9
:1002A0001701FC017383628308950E94C50089359C
:1002B00022E092070CF5803591050CF1BC018827EE
:1002C00077FD8095982F0E94DC0625E73CE948EDF4
:1002D00059E30E9468072AE339E145EB5BE30E949A
:1002E000DC059B01AC0160E070E080E89FE30E94C8
:1002F00041060E94A90605C063E070E002C065E205
:1003000070E0CB010895CF93DF93EC010E94BB0016
:100310008BE191E099838883DF91CF910895809359
:10032000000108958E3008F08E50877020910001F2
:1003300040E4249F90011124822B80937C008091C3
:100340007A00806480937A0080917A0086FDFCCFE9
:100350002091780030917900932F80E0AC01422BFE
:100360009A01C90108951F920F920FB60F9211249E
:100370002F933F938F939F93AF93BF9380913801B7
:1003800090913901A0913A01B0913B013091400127
:10039000232F2D5F2D3720F40196A11DB11D05C01F
:1003A000232F2A570296A11DB11D2093400180934F
:1003B000380190933901A0933A01B0933B018091A9
:1003C0003C0190913D01A0913E01B0913F01019609
:1003D000A11DB11D80933C0190933D01A0933E016E
:1003E000B0933F01BF91AF919F918F913F912F911A
:1003F0000F900FBE0F901F9018950F931F939FB7EC
:10040000F89400913C0110913D0120913E01309102
:100410003F0186B5A89B06C08F3F21F00F5F1F4F9D
:100420002F4F3F4F9FBF322F212F102F0027080F34
:10043000111D211D311D42E0000F111F221F331F0E
:100440004A95D1F7B801C9011F910F910895CF9234
:10045000DF92EF92FF92CF93DF936B017C010E94BA
:10046000FD01EB010EC00E94FD016C1B7D0B683E7F
:10047000734038F081E0C81AD108E108F108C8518A
:10048000DC4FC114D104E104F10469F7DF91CF918D
:10049000FF90EF90DF90CF900895789484B58260BC
:1004A00084BD84B5816084BD85B5826085BD85B518
:1004B000816085BDEEE6F0E0808181608083E1E8C7
:1004C000F0E01082808182608083808181608083FF
:1004D000E0E8F0E0808181608083E1EBF0E0808102
:1004E00084608083E0EBF0E0808181608083EAE7D4
:1004F000F0E080818460808380818260808380815D
:10050000816080838081806880831092C10008951B
:100510004F925F926F927F92AF92BF92CF92DF9293
:10052000EF92FF920F931F93CF93DF93CDB7DEB778
:1005300029013A01621B730B840B950B29893A89B7
:100540004B895C892A193B094C095D09298B3A8B37
:100550004B8B5C8B9B01AC0169897A898B899C8967
:100560000E94D607E418F50806091709A8019701A3
:100570000E9408082A0D3B1D4C1D5D1DB901CA01D2
:10058000DF91CF911F910F91FF90EF90DF90CF906F
:10059000BF90AF907F906F905F904F900895CF93F2
:1005A000DF9390E0FC01E859FF4F4491FC01E458CF
:1005B000FF4F8491882341F190E0880F991FFC013F
:1005C000E656FF4F25913491D90180579F4FFC018A
:1005D00085919491C82FD92F9FB7F8948C91611170
:1005E00006C0409584238C938881842308C06230A0
:1005F00041F4242F209582238C938881842B888337
:1006000002C0842B8C939FBFDF91CF910895FC0192
:1006100084859585FC01E05CFF4F20813181FC01E0
:10062000EE5BFF4F80819181281B390B2F7333279D
:10063000C9010895FC0184859585FC01E05CFF4FAC
:1006400040815181FC01EE5BFF4F208131814217D7
:10065000530741F00190F081E02DE80FF91F208150
:1006600030E002C02FEF3FEFC9010895FC018485FF
:100670009585FC01E05CFF4F40815181FC01EE5B00
:10068000FF4F208131814217530771F0A081B18162
:10069000A80FB91F2C918081918101968F739927A2
:1006A0009183808330E002C02FEF3FEFC9010895AE
:1006B000FC0186859785FC01E05CFF4FDC01AE5BA9
:1006C000BF4F408151812D913C91119742175307A3
:1006D000C1F70895CF93DF93FC0126853785D901B3
:1006E000A05CBF4F8D919C91119701968F739927B4
:1006F000E901CE5BDF4F4881598184179507D9F313
:100700000D90BC91A02DA20FB31F6C93A685B78549
:10071000A05CBF4F11969C938E93A689B7892C91AC
:1007200081E090E0058C02C0880F991F0A94E2F7DF
:10073000282B2C9381E090E0DF91CF9108950895CC
:100740001F920F920FB60F9211242F933F934F9346
:100750008F939F93EF93FF934091C6008091E401A4
:100760009091E50101968F7399272091E6013091D0
:10077000E7018217930759F0E091E401F091E50158
:10078000EC55FE4F40839093E5018093E401FF9187
:10079000EF919F918F914F913F912F910F900FBEAD
:1007A0000F901F90189581E491E00E940703892B18
:1007B00011F00C949F0308951F920F920FB60F92A1
:1007C00011242F933F938F939F93EF93FF93209147
:1007D000A0013091A1018091A2019091A30128175D
:1007E000390731F48091C1008F7D8093C10014C01E
:1007F000E091A201F091A301E05AFE4F2081809187
:10080000A2019091A30101968F7399279093A30160
:100810008093A2012093C600FF91EF919F918F9149
:100820003F912F910F900FBE0F901F901895CF9270
:10083000DF92EF92FF92CF93DF93EC016A017B018D
:10084000411581EE580761057105F9F0EC89FD89C4
:1008500081E090E00E8C02C0880F991F0A94E2F7A5
:10086000808360E079E08DE390E0A70196010E942B
:10087000E6072150310941095109569547953795A9
:100880002795211580E1380798F0EC89FD891082C1
:1008900060E874E88EE190E0A70196010E94E60707
:1008A00021503109410951095695479537952795AA
:1008B000E889F9893083EA89FB892083EE89FF89F9
:1008C000408181E090E09C010A8C02C0220F331F1E
:1008D0000A94E2F7422B4083EE89FF8940819C0114
:1008E0000B8C02C0220F331F0A94E2F7422B408385
:1008F000EE89FF8940819C010C8C02C0220F331FBE
:100900000A94E2F7422B4083EE89FF8920810D8C07
:1009100002C0880F991F0A94E2F780958223808392
:10092000DF91CF91FF90EF90DF90CF9008951092DC
:1009300044011092430188EE93E0A0E0B0E0809380
:10094000450190934601A0934701B093480181E28D
:1009500091E0909342018093410184EA91E0909369
:100960004E0180934D0180E691E090935001809379
:100970004F0185EC90E0909352018093510184ECFB
:1009800090E0909354018093530180EC90E0909319
:1009900056018093550181EC90E09093580180932B
:1009A000570186EC90E090935A018093590184E0BE
:1009B00080935B0183E080935C0187E080935D011D
:1009C00085E080935E0181E080935F010895CF927E
:1009D000DF92EF92FF920F931F93CF93DF936C01FF
:1009E000EB017A01E60EF71E00E010E00BC0699102
:1009F000D601ED91FC910190F081E02DC6010995A1
:100A0000080F191FCE15DF0591F7C801DF91CF91AF
:100A10001F910F91FF90EF90DF90CF900895DB0131
:100A20000D900020E9F7AD0141505109461B570BCD
:100A3000DC01ED91FC910280F381E02D09940C948E
:100A40000F05DC01ED91FC910190F081E02D0994FE
:100A50005F926F927F928F929F92AF92BF92CF924E
:100A6000DF92EF92FF920F931F93CF93DF93CDB757
:100A7000DEB7A1970FB6F894DEBF0FBECDBF3C0125
:100A80006A017B01522E19A281E0821710F08AE0E0
:100A9000582E8E010F5D1F4F852C912CA12CB12C4F
:100AA000C701B601A50194010E94E6078C2D529E54
:100AB00080191124015011098A3010F4805D01C0A1
:100AC000895CF801808369017A01C114D104E104D1
:100AD000F10431F7B801C3010E940F05A1960FB6CA
:100AE000F894DEBF0FBECDBFDF91CF911F910F9164
:100AF000FF90EF90DF90CF90BF90AF909F908F903E
:100B00007F906F905F900895CF92DF92EF92FF9267
:100B10000F931F93CF93DF93EC016A017B012115A3
:100B2000310579F4E881F9810190F081E02D642F9D
:100B3000DF91CF911F910F91FF90EF90DF90CF90B9
:100B400009942A30310519F477FD0EC02AE0B70167
:100B5000A601CE01DF91CF911F910F91FF90EF90F1
:100B6000DF90CF900C9428056DE20E9421058C0146
:100B700044275527BA014C195D096E097F092AE0FF
:100B8000CE010E9428059C01200F311FC901DF9171
:100B9000CF911F910F91FF90EF90DF90CF9008952C
:100BA0009A01AB01662757FD6095762F0C9484055A
:100BB0000895F8940C9436085058BB27AA270ED0F5
:100BC0004DC13ED130F043D120F031F49F3F11F4BC
:100BD0001EF433C10EF4E095E7FB29C1E92F4FD194
:100BE00080F3BA17620773078407950718F071F44A
:100BF0009EF567C10EF4E0950B2EBA2FA02D0B01C8
:100C0000B90190010C01CA01A0011124FF27591B51
:100C100099F0593F50F4503E68F11A16F040A22F57
:100C2000232F342F4427585FF3CF469537952795C8
:100C3000A795F0405395C9F77EF41F16BA0B620BC7
:100C4000730B840BBAF09150A1F0FF0FBB1F661F0E
:100C5000771F881FC2F70EC0BA0F621F731F841F51
:100C600048F4879577956795B795F7959E3F08F077
:100C7000B3CF9395880F08F09927EE0F9795879536
:100C800008950CD0EBC0E3D040F0DAD030F021F47E
:100C90005F3F19F0CCC0511115C1CFC0F0D098F30F
:100CA0009923C9F35523B1F3951B550BBB27AA27ED
:100CB00062177307840738F09F5F5F4F220F331F5F
:100CC000441FAA1FA9F333D00E2E3AF0E0E830D02B
:100CD00091505040E695001CCAF729D0FE2F27D02E
:100CE000660F771F881FBB1F261737074807AB07FC
:100CF000B0E809F0BB0B802DBF01FF2793585F4F71
:100D00002AF09E3F510568F092C0DCC05F3FECF3D3
:100D1000983EDCF3869577956795B795F7959F5F35
:100D2000C9F7880F911D9695879597F90895E1E089
:100D3000660F771F881FBB1F621773078407BA07E8
:100D400020F0621B730B840BBA0BEE1F88F7E09543
:100D5000089504D06894B111B5C0089598D088F072
:100D60009F5790F0B92F9927B751A0F0D1F0660F97
:100D7000771F881F991F1AF0BA95C9F712C0B130B2
:100D800081F09FD0B1E008959CC0672F782F88270D
:100D9000B85F39F0B93FCCF3869577956795B395F1
:100DA000D9F73EF490958095709561957F4F8F4F60
:100DB0009F4F0895E89409C097FB3EF49095809565
:100DC000709561957F4F8F4F9F4F9923A9F0F92F11
:100DD00096E9BB279395F695879577956795B7958F
:100DE000F111F8CFFAF4BB0F11F460FF1BC06F5F75
:100DF0007F4F8F4F9F4F16C0882311F096E911C087
:100E0000772321F09EE8872F762F05C0662371F0A7
:100E100096E8862F70E060E02AF09A95660F771FBB
:100E2000881FDAF7880F9695879597F9089597F9AF
:100E30009F6780E870E060E008959FEF80EC089580
:100E400000240A94161617061806090608950024A9
:100E50000A9412161306140605060895092E039423
:100E6000000C11F4882352F0BB0F40F4BF2B11F497
:100E700060FF04C06F5F7F4F8F4F9F4F089557FDF6
:100E80009058440F551F59F05F3F71F04795880FF8
:100E900097FB991F61F09F3F79F08795089512168F
:100EA00013061406551FF2CF4695F1DF08C016163B
:100EB00017061806991FF1CF8695710561050894EC
:100EC0000895E894BB2766277727CB0197F9089503
:100ED0000BD0C4CFB5DF28F0BADF18F0952309F0A6
:100EE000A6CFABCF1124EECFCADFA0F3959FD1F3ED
:100EF000950F50E0551F629FF001729FBB27F00DC8
:100F0000B11D639FAA27F00DB11DAA1F649F66271C
:100F1000B00DA11D661F829F2227B00DA11D621F6B
:100F2000739FB00DA11D621F839FA00D611D221F25
:100F3000749F3327A00D611D231F849F600D211D09
:100F4000822F762F6A2F11249F5750408AF0E1F0AC
:100F500088234AF0EE0FFF1FBB1F661F771F881FF5
:100F600091505040A9F79E3F510570F060CFAACF35
:100F70005F3FECF3983EDCF3869577956795B795E0
:100F8000F795E7959F5FC1F7FE2B880F911D96950A
:100F9000879597F908950E942408A59F900DB49F06
:100FA000900DA49F800D911D11240895DB018F9356
:100FB0009F930E94CB07BF91AF91A29F800D911D7F
:100FC000A39F900DB29F900D11240895A1E21A2EB7
:100FD000AA1BBB1BFD010DC0AA1FBB1FEE1FFF1FDD
:100FE000A217B307E407F50720F0A21BB30BE40B2D
:100FF000F50B661F771F881F991F1A9469F7609574
:101000007095809590959B01AC01BD01CF0108952D
:10101000052E97FB16F4009407D057FD0DD00E94C3
:10102000E60707FC09D07EF4909580957095619550
:101030007F4F8F4F9F4F0895509540953095219544
:101040003F4F4F4F5F4F0895A29FB001B39FC00124
:10105000A39F01D0B29F700D811D1124911D089591
:10106000EE0FFF1F0590F491E02D0994F894FFCF47
:10107000010A41444320696E707574206D563A2010
:101080000000000000D8050000000055010000002D
:0E109000006A03E704070336031A035803003F
:00000001FF
